{
  "contractName": "Trazabilidad",
  "abi": [
    {
      "anonymous": false,
      "inputs": [
        {
          "indexed": false,
          "name": "direccionProductor",
          "type": "address"
        },
        {
          "indexed": false,
          "name": "id",
          "type": "string"
        },
        {
          "indexed": false,
          "name": "Productor",
          "type": "string"
        },
        {
          "indexed": false,
          "name": "FechaCreacion",
          "type": "uint256"
        }
      ],
      "name": "CrearProducto",
      "type": "event"
    },
    {
      "anonymous": false,
      "inputs": [
        {
          "indexed": false,
          "name": "from",
          "type": "address"
        },
        {
          "indexed": false,
          "name": "to",
          "type": "address"
        },
        {
          "indexed": false,
          "name": "id",
          "type": "string"
        }
      ],
      "name": "TransferenciaProducto",
      "type": "event"
    },
    {
      "anonymous": false,
      "inputs": [
        {
          "indexed": false,
          "name": "from",
          "type": "address"
        },
        {
          "indexed": false,
          "name": "to",
          "type": "address"
        },
        {
          "indexed": false,
          "name": "id",
          "type": "string"
        },
        {
          "indexed": false,
          "name": "mensajeCausaRechazo",
          "type": "string"
        }
      ],
      "name": "RechazarTransferencia",
      "type": "event"
    },
    {
      "anonymous": false,
      "inputs": [
        {
          "indexed": false,
          "name": "direccionProductor",
          "type": "address"
        },
        {
          "indexed": false,
          "name": "id",
          "type": "string"
        },
        {
          "indexed": false,
          "name": "mensajeCausaRechazo",
          "type": "string"
        }
      ],
      "name": "RechazarCreacion",
      "type": "event"
    },
    {
      "constant": false,
      "inputs": [
        {
          "name": "nombre",
          "type": "string"
        },
        {
          "name": "descripcion",
          "type": "string"
        },
        {
          "name": "id",
          "type": "string"
        },
        {
          "name": "Productor",
          "type": "string"
        },
        {
          "name": "ubicacion",
          "type": "string"
        },
        {
          "name": "precioVenta",
          "type": "uint32"
        }
      ],
      "name": "creacionProducto",
      "outputs": [],
      "payable": false,
      "stateMutability": "nonpayable",
      "type": "function"
    },
    {
      "constant": false,
      "inputs": [
        {
          "name": "to",
          "type": "address"
        },
        {
          "name": "id",
          "type": "string"
        }
      ],
      "name": "transfProducto",
      "outputs": [],
      "payable": false,
      "stateMutability": "nonpayable",
      "type": "function"
    },
    {
      "constant": true,
      "inputs": [
        {
          "name": "id",
          "type": "string"
        }
      ],
      "name": "obtenerProducto",
      "outputs": [
        {
          "name": "",
          "type": "string"
        },
        {
          "name": "",
          "type": "string"
        },
        {
          "name": "",
          "type": "string"
        },
        {
          "name": "",
          "type": "string"
        },
        {
          "name": "",
          "type": "uint256"
        }
      ],
      "payable": false,
      "stateMutability": "view",
      "type": "function"
    },
    {
      "constant": true,
      "inputs": [
        {
          "name": "propietario",
          "type": "address"
        },
        {
          "name": "id",
          "type": "string"
        }
      ],
      "name": "esPropietario",
      "outputs": [
        {
          "name": "",
          "type": "bool"
        }
      ],
      "payable": false,
      "stateMutability": "view",
      "type": "function"
    }
  ],
  "bytecode": "0x608060405234801561001057600080fd5b5061173a806100206000396000f300608060405260043610610062576000357c0100000000000000000000000000000000000000000000000000000000900463ffffffff168063a166706c14610067578063a27b8bdf146101f8578063c2acca6714610425578063d2a692fb146104ae575b600080fd5b34801561007357600080fd5b506101f6600480360381019080803590602001908201803590602001908080601f0160208091040260200160405190810160405280939291908181526020018383808284378201915050505050509192919290803590602001908201803590602001908080601f0160208091040260200160405190810160405280939291908181526020018383808284378201915050505050509192919290803590602001908201803590602001908080601f0160208091040260200160405190810160405280939291908181526020018383808284378201915050505050509192919290803590602001908201803590602001908080601f0160208091040260200160405190810160405280939291908181526020018383808284378201915050505050509192919290803590602001908201803590602001908080601f0160208091040260200160405190810160405280939291908181526020018383808284378201915050505050509192919290803563ffffffff16906020019092919050505061054f565b005b34801561020457600080fd5b5061025f600480360381019080803590602001908201803590602001908080601f0160208091040260200160405190810160405280939291908181526020018383808284378201915050505050509192919290505050610a82565b604051808060200180602001806020018060200186815260200185810385528a818151815260200191508051906020019080838360005b838110156102b1578082015181840152602081019050610296565b50505050905090810190601f1680156102de5780820380516001836020036101000a031916815260200191505b50858103845289818151815260200191508051906020019080838360005b838110156103175780820151818401526020810190506102fc565b50505050905090810190601f1680156103445780820380516001836020036101000a031916815260200191505b50858103835288818151815260200191508051906020019080838360005b8381101561037d578082015181840152602081019050610362565b50505050905090810190601f1680156103aa5780820380516001836020036101000a031916815260200191505b50858103825287818151815260200191508051906020019080838360005b838110156103e35780820151818401526020810190506103c8565b50505050905090810190601f1680156104105780820380516001836020036101000a031916815260200191505b50995050505050505050505060405180910390f35b34801561043157600080fd5b506104ac600480360381019080803573ffffffffffffffffffffffffffffffffffffffff169060200190929190803590602001908201803590602001908080601f0160208091040260200160405190810160405280939291908181526020018383808284378201915050505050509192919290505050610f4c565b005b3480156104ba57600080fd5b50610535600480360381019080803573ffffffffffffffffffffffffffffffffffffffff169060200190929190803590602001908201803590602001908080601f0160208091040260200160405190810160405280939291908181526020018383808284378201915050505050509192919290505050611598565b604051808215151515815260200191505060405180910390f35b6000846040518082805190602001908083835b6020831015156105875780518252602082019150602081019050602083039250610562565b6001836020036101000a038019825116818451168082178552505050505050905001915050908152602001604051809103902060060160009054906101000a900460ff1615610704577f0d58f4bee7f0499d0f05205e5aa2d227b6d01d4f6c5351154bc368d70b97839d3385604051808373ffffffffffffffffffffffffffffffffffffffff1673ffffffffffffffffffffffffffffffffffffffff1681526020018060200180602001838103835284818151815260200191508051906020019080838360005b8381101561066957808201518184015260208101905061064e565b50505050905090810190601f1680156106965780820380516001836020036101000a031916815260200191505b50838103825260218152602001807f50726f647563746f20636f6e20657374652069642065786973746520656e204281526020017f440000000000000000000000000000000000000000000000000000000000000081525060400194505050505060405180910390a1610a7a565b60e0604051908101604052808781526020018681526020018381526020018481526020018263ffffffff168152602001428152602001600115158152506000856040518082805190602001908083835b6020831015156107795780518252602082019150602081019050602083039250610754565b6001836020036101000a038019825116818451168082178552505050505050905001915050908152602001604051809103902060008201518160000190805190602001906107c8929190611669565b5060208201518160010190805190602001906107e5929190611669565b506040820151816002019080519060200190610802929190611669565b50606082015181600301908051906020019061081f929190611669565b5060808201518160040160006101000a81548163ffffffff021916908363ffffffff16021790555060a0820151816005015560c08201518160060160006101000a81548160ff02191690831515021790555090505060018060003373ffffffffffffffffffffffffffffffffffffffff1673ffffffffffffffffffffffffffffffffffffffff168152602001908152602001600020856040518082805190602001908083835b6020831015156108ea57805182526020820191506020810190506020830392506108c5565b6001836020036101000a038019825116818451168082178552505050505050905001915050908152602001604051809103902060006101000a81548160ff0219169083151502179055507f4f9b444ca59f12a4c8f7233ca52824a752c7abae171ded1fac91a395869b865333858542604051808573ffffffffffffffffffffffffffffffffffffffff1673ffffffffffffffffffffffffffffffffffffffff1681526020018060200180602001848152602001838103835286818151815260200191508051906020019080838360005b838110156109d55780820151818401526020810190506109ba565b50505050905090810190601f168015610a025780820380516001836020036101000a031916815260200191505b50838103825285818151815260200191508051906020019080838360005b83811015610a3b578082015181840152602081019050610a20565b50505050905090810190601f168015610a685780820380516001836020036101000a031916815260200191505b50965050505050505060405180910390a15b505050505050565b606080606080600080866040518082805190602001908083835b602083101515610ac15780518252602082019150602081019050602083039250610a9c565b6001836020036101000a03801982511681845116808217855250505050505090500191505090815260200160405180910390206000016000876040518082805190602001908083835b602083101515610b2f5780518252602082019150602081019050602083039250610b0a565b6001836020036101000a03801982511681845116808217855250505050505090500191505090815260200160405180910390206001016000886040518082805190602001908083835b602083101515610b9d5780518252602082019150602081019050602083039250610b78565b6001836020036101000a03801982511681845116808217855250505050505090500191505090815260200160405180910390206003016000896040518082805190602001908083835b602083101515610c0b5780518252602082019150602081019050602083039250610be6565b6001836020036101000a038019825116818451168082178552505050505050905001915050908152602001604051809103902060020160008a6040518082805190602001908083835b602083101515610c795780518252602082019150602081019050602083039250610c54565b6001836020036101000a038019825116818451168082178552505050505050905001915050908152602001604051809103902060040160009054906101000a900463ffffffff16848054600181600116156101000203166002900480601f016020809104026020016040519081016040528092919081815260200182805460018160011615610100020316600290048015610d555780601f10610d2a57610100808354040283529160200191610d55565b820191906000526020600020905b815481529060010190602001808311610d3857829003601f168201915b50505050509450838054600181600116156101000203166002900480601f016020809104026020016040519081016040528092919081815260200182805460018160011615610100020316600290048015610df15780601f10610dc657610100808354040283529160200191610df1565b820191906000526020600020905b815481529060010190602001808311610dd457829003601f168201915b50505050509350828054600181600116156101000203166002900480601f016020809104026020016040519081016040528092919081815260200182805460018160011615610100020316600290048015610e8d5780601f10610e6257610100808354040283529160200191610e8d565b820191906000526020600020905b815481529060010190602001808311610e7057829003601f168201915b50505050509250818054600181600116156101000203166002900480601f016020809104026020016040519081016040528092919081815260200182805460018160011615610100020316600290048015610f295780601f10610efe57610100808354040283529160200191610f29565b820191906000526020600020905b815481529060010190602001808311610f0c57829003601f168201915b505050505091508063ffffffff1690509450945094509450945091939590929450565b6000816040518082805190602001908083835b602083101515610f845780518252602082019150602081019050602083039250610f5f565b6001836020036101000a038019825116818451168082178552505050505050905001915050908152602001604051809103902060060160009054906101000a900460ff161515611110577f7978fa36b53e615afd9ae45e313ebb78f57eb8b947c0bccb51675a48a76586c6338383604051808473ffffffffffffffffffffffffffffffffffffffff1673ffffffffffffffffffffffffffffffffffffffff1681526020018373ffffffffffffffffffffffffffffffffffffffff1673ffffffffffffffffffffffffffffffffffffffff1681526020018060200180602001838103835284818151815260200191508051906020019080838360005b8381101561109a57808201518184015260208101905061107f565b50505050905090810190601f1680156110c75780820380516001836020036101000a031916815260200191505b508381038252601e8152602001807f6e6f206578697374652070726f647563746f20636f6e206573746520696400008152506020019550505050505060405180910390a1611594565b600160003373ffffffffffffffffffffffffffffffffffffffff1673ffffffffffffffffffffffffffffffffffffffff168152602001908152602001600020816040518082805190602001908083835b6020831015156111855780518252602082019150602081019050602083039250611160565b6001836020036101000a038019825116818451168082178552505050505050905001915050908152602001604051809103902060009054906101000a900460ff16151561130e577f7978fa36b53e615afd9ae45e313ebb78f57eb8b947c0bccb51675a48a76586c6338383604051808473ffffffffffffffffffffffffffffffffffffffff1673ffffffffffffffffffffffffffffffffffffffff1681526020018373ffffffffffffffffffffffffffffffffffffffff1673ffffffffffffffffffffffffffffffffffffffff1681526020018060200180602001838103835284818151815260200191508051906020019080838360005b8381101561129857808201518184015260208101905061127d565b50505050905090810190601f1680156112c55780820380516001836020036101000a031916815260200191505b508381038252601f8152602001807f5573756172696f206e6f20706f73656520657374652070726f647563746f2e008152506020019550505050505060405180910390a1611594565b6000600160003373ffffffffffffffffffffffffffffffffffffffff1673ffffffffffffffffffffffffffffffffffffffff168152602001908152602001600020826040518082805190602001908083835b6020831015156113855780518252602082019150602081019050602083039250611360565b6001836020036101000a038019825116818451168082178552505050505050905001915050908152602001604051809103902060006101000a81548160ff02191690831515021790555060018060008473ffffffffffffffffffffffffffffffffffffffff1673ffffffffffffffffffffffffffffffffffffffff168152602001908152602001600020826040518082805190602001908083835b6020831015156114455780518252602082019150602081019050602083039250611420565b6001836020036101000a038019825116818451168082178552505050505050905001915050908152602001604051809103902060006101000a81548160ff0219169083151502179055507fc6dcb69d1ba0e8e5500260debb469358a293de76275ecef9e950af45ce2cf711338383604051808473ffffffffffffffffffffffffffffffffffffffff1673ffffffffffffffffffffffffffffffffffffffff1681526020018373ffffffffffffffffffffffffffffffffffffffff1673ffffffffffffffffffffffffffffffffffffffff16815260200180602001828103825283818151815260200191508051906020019080838360005b8381101561155757808201518184015260208101905061153c565b50505050905090810190601f1680156115845780820380516001836020036101000a031916815260200191505b5094505050505060405180910390a15b5050565b6000600160008473ffffffffffffffffffffffffffffffffffffffff1673ffffffffffffffffffffffffffffffffffffffff168152602001908152602001600020826040518082805190602001908083835b60208310151561160f57805182526020820191506020810190506020830392506115ea565b6001836020036101000a038019825116818451168082178552505050505050905001915050908152602001604051809103902060009054906101000a900460ff161561165e5760019050611663565b600090505b92915050565b828054600181600116156101000203166002900490600052602060002090601f016020900481019282601f106116aa57805160ff19168380011785556116d8565b828001600101855582156116d8579182015b828111156116d75782518255916020019190600101906116bc565b5b5090506116e591906116e9565b5090565b61170b91905b808211156117075760008160009055506001016116ef565b5090565b905600a165627a7a72305820df8dd95ff1fc4299353765e6f889fc5074cc51f78c8a6c081a89a5775b98f7920029",
  "source": "pragma solidity ^0.4.23;\n\n/**\n * @title Trazabilidad\n * @dev Contrato con abstraccion de trazabilidad de cadena de suministros\n */\n \ncontract Trazabilidad {\n  /**\n  * @dev Definimos la estructura de un producto basico.\n  */\n  struct Producto {\n    string nombre;\n    string descripcion;\n    string ubicacion;\n    string Productor;\n    uint32 precioVenta;\n    uint256 FechaCreacion;\n    bool existe;\n  }\n\n  /**\n  * @dev Mapeos que define almacenamiento del producto. Usaremos id\n  */\n  mapping(string  => Producto) private AlmacenamientoProducto;\n  mapping(address => mapping(string => bool)) private wallet;\n\n\n    /**\n  * @dev Declaramos los eventos de acuerdo a las operaciones en la cadena:\n  */\n  event CrearProducto(address direccionProductor, string id, string Productor, uint256 FechaCreacion);\n  event TransferenciaProducto(address from, address to, string id);\n  //event EstablecerPrecio(string id, uint32 precioVenta);\n  event RechazarTransferencia(address from, address to, string id, string mensajeCausaRechazo);\n  event RechazarCreacion(address direccionProductor, string id, string mensajeCausaRechazo);\n\n  /**\n  * @dev Funcion que crea el producto:\n  */\n  function creacionProducto(string nombre, string descripcion, string id, string Productor, string ubicacion,  uint32 precioVenta) public {\n \n    if(AlmacenamientoProducto[id].existe) {\n        emit RechazarCreacion(msg.sender, id, \"Producto con este id existe en BD\");\n        return;\n      }\n \n      AlmacenamientoProducto[id] = Producto(nombre, descripcion, ubicacion, Productor, precioVenta, now, true);\n      wallet[msg.sender][id] = true;\n      emit CrearProducto(msg.sender, id, Productor, now);\n    }\n\n  /**\n  * @dev Funcion para la transferencia del producto:\n  */\n  function transfProducto(address to, string id) public{\n \n    if(!AlmacenamientoProducto[id].existe) {\n        emit RechazarTransferencia(msg.sender, to, id, \"no existe producto con este id\");\n        return;\n    }\n \n    if(!wallet[msg.sender][id]) {\n        emit RechazarTransferencia(msg.sender, to, id, \"Usuario no posee este producto.\");\n        return;\n    }\n \n    wallet[msg.sender][id] = false;\n    wallet[to][id] = true;\n    emit TransferenciaProducto (msg.sender, to, id);\n  }\n\n  /**\n  * @dev Funcion para obtener las caracteristicas de un producto:\n  */\n  function obtenerProducto(string id) public constant returns (string, string, string, string, uint256) {\n \n    return (AlmacenamientoProducto[id].nombre, AlmacenamientoProducto[id].descripcion, AlmacenamientoProducto[id].Productor, AlmacenamientoProducto[id].ubicacion, AlmacenamientoProducto[id].precioVenta);\n  }\n\n  /**\n  * @dev Funcion para verificar la propiedad de un objeto:\n  */\n  function esPropietario(address propietario, string id) public constant returns (bool) {\n \n    if(wallet[propietario][id]) {\n        return true;\n    }\n \n    return false;\n  }\n}\n ",
  "sourcePath": "/home/jacg/trazabilidad-Solidity/blockchain/contracts/Trazabilidad.sol",
  "compiler": {
    "name": "solc",
    "version": "0.4.24+commit.e67f0147.Emscripten.clang"
  },
  "schemaVersion": "2.0.1",
  "updatedAt": "2018-08-04T03:27:25.992Z"
}